{
  "_format": "hh-sol-artifact-1",
  "contractName": "preRevealNFT",
  "sourceName": "contracts/preRevealNFT.sol",
  "abi": [
    {
      "inputs": [
        {
          "internalType": "address",
          "name": "_tokenAddress",
          "type": "address"
        },
        {
          "internalType": "uint256",
          "name": "_price",
          "type": "uint256"
        },
        {
          "internalType": "uint256",
          "name": "_Max_Supply",
          "type": "uint256"
        },
        {
          "internalType": "uint256",
          "name": "_reserve",
          "type": "uint256"
        }
      ],
      "stateMutability": "nonpayable",
      "type": "constructor"
    },
    {
      "inputs": [],
      "name": "ApprovalCallerNotOwnerNorApproved",
      "type": "error"
    },
    {
      "inputs": [],
      "name": "ApprovalQueryForNonexistentToken",
      "type": "error"
    },
    {
      "inputs": [],
      "name": "BalanceQueryForZeroAddress",
      "type": "error"
    },
    {
      "inputs": [],
      "name": "MintERC2309QuantityExceedsLimit",
      "type": "error"
    },
    {
      "inputs": [],
      "name": "MintToZeroAddress",
      "type": "error"
    },
    {
      "inputs": [],
      "name": "MintZeroQuantity",
      "type": "error"
    },
    {
      "inputs": [],
      "name": "NotEnoughAllowance",
      "type": "error"
    },
    {
      "inputs": [],
      "name": "NotEnoughTokens",
      "type": "error"
    },
    {
      "inputs": [],
      "name": "OwnerQueryForNonexistentToken",
      "type": "error"
    },
    {
      "inputs": [],
      "name": "OwnershipNotInitializedForExtraData",
      "type": "error"
    },
    {
      "inputs": [],
      "name": "TransferCallerNotOwnerNorApproved",
      "type": "error"
    },
    {
      "inputs": [],
      "name": "TransferFromIncorrectOwner",
      "type": "error"
    },
    {
      "inputs": [],
      "name": "TransferToNonERC721ReceiverImplementer",
      "type": "error"
    },
    {
      "inputs": [],
      "name": "TransferToZeroAddress",
      "type": "error"
    },
    {
      "inputs": [],
      "name": "URIQueryForNonexistentToken",
      "type": "error"
    },
    {
      "anonymous": false,
      "inputs": [
        {
          "indexed": true,
          "internalType": "address",
          "name": "owner",
          "type": "address"
        },
        {
          "indexed": true,
          "internalType": "address",
          "name": "approved",
          "type": "address"
        },
        {
          "indexed": true,
          "internalType": "uint256",
          "name": "tokenId",
          "type": "uint256"
        }
      ],
      "name": "Approval",
      "type": "event"
    },
    {
      "anonymous": false,
      "inputs": [
        {
          "indexed": true,
          "internalType": "address",
          "name": "owner",
          "type": "address"
        },
        {
          "indexed": true,
          "internalType": "address",
          "name": "operator",
          "type": "address"
        },
        {
          "indexed": false,
          "internalType": "bool",
          "name": "approved",
          "type": "bool"
        }
      ],
      "name": "ApprovalForAll",
      "type": "event"
    },
    {
      "anonymous": false,
      "inputs": [
        {
          "indexed": true,
          "internalType": "uint256",
          "name": "fromTokenId",
          "type": "uint256"
        },
        {
          "indexed": false,
          "internalType": "uint256",
          "name": "toTokenId",
          "type": "uint256"
        },
        {
          "indexed": true,
          "internalType": "address",
          "name": "from",
          "type": "address"
        },
        {
          "indexed": true,
          "internalType": "address",
          "name": "to",
          "type": "address"
        }
      ],
      "name": "ConsecutiveTransfer",
      "type": "event"
    },
    {
      "anonymous": false,
      "inputs": [
        {
          "indexed": true,
          "internalType": "address",
          "name": "previousOwner",
          "type": "address"
        },
        {
          "indexed": true,
          "internalType": "address",
          "name": "newOwner",
          "type": "address"
        }
      ],
      "name": "OwnershipTransferred",
      "type": "event"
    },
    {
      "anonymous": false,
      "inputs": [
        {
          "indexed": true,
          "internalType": "uint256",
          "name": "oldPrice",
          "type": "uint256"
        },
        {
          "indexed": true,
          "internalType": "uint256",
          "name": "newPrice",
          "type": "uint256"
        }
      ],
      "name": "SetPrice",
      "type": "event"
    },
    {
      "anonymous": false,
      "inputs": [
        {
          "indexed": true,
          "internalType": "address",
          "name": "oldAddress",
          "type": "address"
        },
        {
          "indexed": true,
          "internalType": "address",
          "name": "newAddress",
          "type": "address"
        }
      ],
      "name": "TokenAddress",
      "type": "event"
    },
    {
      "anonymous": false,
      "inputs": [
        {
          "indexed": true,
          "internalType": "address",
          "name": "from",
          "type": "address"
        },
        {
          "indexed": true,
          "internalType": "address",
          "name": "to",
          "type": "address"
        },
        {
          "indexed": true,
          "internalType": "uint256",
          "name": "tokenId",
          "type": "uint256"
        }
      ],
      "name": "Transfer",
      "type": "event"
    },
    {
      "inputs": [],
      "name": "Max_Supply",
      "outputs": [
        {
          "internalType": "uint256",
          "name": "",
          "type": "uint256"
        }
      ],
      "stateMutability": "view",
      "type": "function"
    },
    {
      "inputs": [
        {
          "internalType": "address",
          "name": "to",
          "type": "address"
        },
        {
          "internalType": "uint256",
          "name": "tokenId",
          "type": "uint256"
        }
      ],
      "name": "approve",
      "outputs": [],
      "stateMutability": "payable",
      "type": "function"
    },
    {
      "inputs": [
        {
          "internalType": "address",
          "name": "owner",
          "type": "address"
        }
      ],
      "name": "balanceOf",
      "outputs": [
        {
          "internalType": "uint256",
          "name": "",
          "type": "uint256"
        }
      ],
      "stateMutability": "view",
      "type": "function"
    },
    {
      "inputs": [],
      "name": "baseURI",
      "outputs": [
        {
          "internalType": "string",
          "name": "",
          "type": "string"
        }
      ],
      "stateMutability": "view",
      "type": "function"
    },
    {
      "inputs": [
        {
          "internalType": "uint256",
          "name": "tokenId",
          "type": "uint256"
        }
      ],
      "name": "burn",
      "outputs": [],
      "stateMutability": "nonpayable",
      "type": "function"
    },
    {
      "inputs": [
        {
          "internalType": "uint256",
          "name": "tokenId",
          "type": "uint256"
        }
      ],
      "name": "getApproved",
      "outputs": [
        {
          "internalType": "address",
          "name": "",
          "type": "address"
        }
      ],
      "stateMutability": "view",
      "type": "function"
    },
    {
      "inputs": [
        {
          "internalType": "address",
          "name": "owner",
          "type": "address"
        },
        {
          "internalType": "address",
          "name": "operator",
          "type": "address"
        }
      ],
      "name": "isApprovedForAll",
      "outputs": [
        {
          "internalType": "bool",
          "name": "",
          "type": "bool"
        }
      ],
      "stateMutability": "view",
      "type": "function"
    },
    {
      "inputs": [],
      "name": "isRevealed",
      "outputs": [
        {
          "internalType": "bool",
          "name": "",
          "type": "bool"
        }
      ],
      "stateMutability": "view",
      "type": "function"
    },
    {
      "inputs": [
        {
          "internalType": "uint256",
          "name": "quantity",
          "type": "uint256"
        }
      ],
      "name": "mint",
      "outputs": [],
      "stateMutability": "nonpayable",
      "type": "function"
    },
    {
      "inputs": [],
      "name": "name",
      "outputs": [
        {
          "internalType": "string",
          "name": "",
          "type": "string"
        }
      ],
      "stateMutability": "view",
      "type": "function"
    },
    {
      "inputs": [],
      "name": "owner",
      "outputs": [
        {
          "internalType": "address",
          "name": "",
          "type": "address"
        }
      ],
      "stateMutability": "view",
      "type": "function"
    },
    {
      "inputs": [
        {
          "internalType": "uint256",
          "name": "tokenId",
          "type": "uint256"
        }
      ],
      "name": "ownerOf",
      "outputs": [
        {
          "internalType": "address",
          "name": "",
          "type": "address"
        }
      ],
      "stateMutability": "view",
      "type": "function"
    },
    {
      "inputs": [],
      "name": "preRevealedURI",
      "outputs": [
        {
          "internalType": "string",
          "name": "",
          "type": "string"
        }
      ],
      "stateMutability": "view",
      "type": "function"
    },
    {
      "inputs": [],
      "name": "price",
      "outputs": [
        {
          "internalType": "uint256",
          "name": "",
          "type": "uint256"
        }
      ],
      "stateMutability": "view",
      "type": "function"
    },
    {
      "inputs": [],
      "name": "renounceOwnership",
      "outputs": [],
      "stateMutability": "nonpayable",
      "type": "function"
    },
    {
      "inputs": [
        {
          "internalType": "uint256",
          "name": "quantity",
          "type": "uint256"
        }
      ],
      "name": "reserve",
      "outputs": [],
      "stateMutability": "nonpayable",
      "type": "function"
    },
    {
      "inputs": [],
      "name": "reserveQuantity",
      "outputs": [
        {
          "internalType": "uint256",
          "name": "",
          "type": "uint256"
        }
      ],
      "stateMutability": "view",
      "type": "function"
    },
    {
      "inputs": [
        {
          "internalType": "string",
          "name": "baseURI_",
          "type": "string"
        }
      ],
      "name": "revealAndSetBaseURI",
      "outputs": [],
      "stateMutability": "nonpayable",
      "type": "function"
    },
    {
      "inputs": [
        {
          "internalType": "address",
          "name": "from",
          "type": "address"
        },
        {
          "internalType": "address",
          "name": "to",
          "type": "address"
        },
        {
          "internalType": "uint256",
          "name": "tokenId",
          "type": "uint256"
        }
      ],
      "name": "safeTransferFrom",
      "outputs": [],
      "stateMutability": "payable",
      "type": "function"
    },
    {
      "inputs": [
        {
          "internalType": "address",
          "name": "from",
          "type": "address"
        },
        {
          "internalType": "address",
          "name": "to",
          "type": "address"
        },
        {
          "internalType": "uint256",
          "name": "tokenId",
          "type": "uint256"
        },
        {
          "internalType": "bytes",
          "name": "_data",
          "type": "bytes"
        }
      ],
      "name": "safeTransferFrom",
      "outputs": [],
      "stateMutability": "payable",
      "type": "function"
    },
    {
      "inputs": [
        {
          "internalType": "address",
          "name": "operator",
          "type": "address"
        },
        {
          "internalType": "bool",
          "name": "approved",
          "type": "bool"
        }
      ],
      "name": "setApprovalForAll",
      "outputs": [],
      "stateMutability": "nonpayable",
      "type": "function"
    },
    {
      "inputs": [
        {
          "internalType": "uint256",
          "name": "_maxSupply",
          "type": "uint256"
        }
      ],
      "name": "setMaxSupply",
      "outputs": [],
      "stateMutability": "nonpayable",
      "type": "function"
    },
    {
      "inputs": [
        {
          "internalType": "string",
          "name": "_preRevealedURI",
          "type": "string"
        }
      ],
      "name": "setPreRevealedURI",
      "outputs": [],
      "stateMutability": "nonpayable",
      "type": "function"
    },
    {
      "inputs": [
        {
          "internalType": "uint256",
          "name": "_price",
          "type": "uint256"
        }
      ],
      "name": "setPrice",
      "outputs": [],
      "stateMutability": "nonpayable",
      "type": "function"
    },
    {
      "inputs": [
        {
          "internalType": "address",
          "name": "_tokenAddress",
          "type": "address"
        }
      ],
      "name": "setTokenAddress",
      "outputs": [],
      "stateMutability": "nonpayable",
      "type": "function"
    },
    {
      "inputs": [
        {
          "internalType": "uint256",
          "name": "quantity",
          "type": "uint256"
        }
      ],
      "name": "setreserve",
      "outputs": [],
      "stateMutability": "nonpayable",
      "type": "function"
    },
    {
      "inputs": [
        {
          "internalType": "bytes4",
          "name": "interfaceId",
          "type": "bytes4"
        }
      ],
      "name": "supportsInterface",
      "outputs": [
        {
          "internalType": "bool",
          "name": "",
          "type": "bool"
        }
      ],
      "stateMutability": "view",
      "type": "function"
    },
    {
      "inputs": [],
      "name": "symbol",
      "outputs": [
        {
          "internalType": "string",
          "name": "",
          "type": "string"
        }
      ],
      "stateMutability": "view",
      "type": "function"
    },
    {
      "inputs": [],
      "name": "tokenAddress",
      "outputs": [
        {
          "internalType": "address",
          "name": "",
          "type": "address"
        }
      ],
      "stateMutability": "view",
      "type": "function"
    },
    {
      "inputs": [
        {
          "internalType": "uint256",
          "name": "tokenId",
          "type": "uint256"
        }
      ],
      "name": "tokenURI",
      "outputs": [
        {
          "internalType": "string",
          "name": "",
          "type": "string"
        }
      ],
      "stateMutability": "view",
      "type": "function"
    },
    {
      "inputs": [],
      "name": "totalSupply",
      "outputs": [
        {
          "internalType": "uint256",
          "name": "",
          "type": "uint256"
        }
      ],
      "stateMutability": "view",
      "type": "function"
    },
    {
      "inputs": [
        {
          "internalType": "address",
          "name": "from",
          "type": "address"
        },
        {
          "internalType": "address",
          "name": "to",
          "type": "address"
        },
        {
          "internalType": "uint256",
          "name": "tokenId",
          "type": "uint256"
        }
      ],
      "name": "transferFrom",
      "outputs": [],
      "stateMutability": "payable",
      "type": "function"
    },
    {
      "inputs": [
        {
          "internalType": "address",
          "name": "newOwner",
          "type": "address"
        }
      ],
      "name": "transferOwnership",
      "outputs": [],
      "stateMutability": "nonpayable",
      "type": "function"
    }
  ],
  "bytecode": "0x608060405260405180602001604052806000815250600b908162000024919062000513565b5060405180606001604052806021815260200162003af360219139600e90816200004f919062000513565b503480156200005d57600080fd5b5060405162003b1438038062003b14833981810160405281019062000083919062000695565b6040518060400160405280600e81526020017f50726552657665616c546f6b656e0000000000000000000000000000000000008152506040518060400160405280600381526020017f5052540000000000000000000000000000000000000000000000000000000000815250816002908162000100919062000513565b50806003908162000112919062000513565b5062000123620001c660201b60201c565b60008190555050506200014b6200013f620001cb60201b60201c565b620001d360201b60201c565b83600a60006101000a81548173ffffffffffffffffffffffffffffffffffffffff021916908373ffffffffffffffffffffffffffffffffffffffff1602179055508260098190555081600c8190555080600d819055506000600f60006101000a81548160ff0219169083151502179055505050505062000707565b600090565b600033905090565b6000600860009054906101000a900473ffffffffffffffffffffffffffffffffffffffff16905081600860006101000a81548173ffffffffffffffffffffffffffffffffffffffff021916908373ffffffffffffffffffffffffffffffffffffffff1602179055508173ffffffffffffffffffffffffffffffffffffffff168173ffffffffffffffffffffffffffffffffffffffff167f8be0079c531659141344cd1fd0a4f28419497f9722a3daafe3b4186f6b6457e060405160405180910390a35050565b600081519050919050565b7f4e487b7100000000000000000000000000000000000000000000000000000000600052604160045260246000fd5b7f4e487b7100000000000000000000000000000000000000000000000000000000600052602260045260246000fd5b600060028204905060018216806200031b57607f821691505b602082108103620003315762000330620002d3565b5b50919050565b60008190508160005260206000209050919050565b60006020601f8301049050919050565b600082821b905092915050565b6000600883026200039b7fffffffffffffffffffffffffffffffffffffffffffffffffffffffffffffffff826200035c565b620003a786836200035c565b95508019841693508086168417925050509392505050565b6000819050919050565b6000819050919050565b6000620003f4620003ee620003e884620003bf565b620003c9565b620003bf565b9050919050565b6000819050919050565b6200041083620003d3565b620004286200041f82620003fb565b84845462000369565b825550505050565b600090565b6200043f62000430565b6200044c81848462000405565b505050565b5b8181101562000474576200046860008262000435565b60018101905062000452565b5050565b601f821115620004c3576200048d8162000337565b62000498846200034c565b81016020851015620004a8578190505b620004c0620004b7856200034c565b83018262000451565b50505b505050565b600082821c905092915050565b6000620004e860001984600802620004c8565b1980831691505092915050565b6000620005038383620004d5565b9150826002028217905092915050565b6200051e8262000299565b67ffffffffffffffff8111156200053a5762000539620002a4565b5b62000546825462000302565b6200055382828562000478565b600060209050601f8311600181146200058b576000841562000576578287015190505b620005828582620004f5565b865550620005f2565b601f1984166200059b8662000337565b60005b82811015620005c5578489015182556001820191506020850194506020810190506200059e565b86831015620005e55784890151620005e1601f891682620004d5565b8355505b6001600288020188555050505b505050505050565b600080fd5b600073ffffffffffffffffffffffffffffffffffffffff82169050919050565b60006200062c82620005ff565b9050919050565b6200063e816200061f565b81146200064a57600080fd5b50565b6000815190506200065e8162000633565b92915050565b6200066f81620003bf565b81146200067b57600080fd5b50565b6000815190506200068f8162000664565b92915050565b60008060008060808587031215620006b257620006b1620005fa565b5b6000620006c2878288016200064d565b9450506020620006d5878288016200067e565b9350506040620006e8878288016200067e565b9250506060620006fb878288016200067e565b91505092959194509250565b6133dc80620007176000396000f3fe6080604052600436106101ee5760003560e01c80636f8b44b01161010d5780639d76ea58116100a0578063b88d4fde1161006f578063b88d4fde1461069a578063c87b56dd146106b6578063de210ab3146106f3578063e985e9c51461071e578063f2fde38b1461075b576101ee565b80639d76ea58146105f2578063a035b1fe1461061d578063a0712d6814610648578063a22cb46514610671576101ee565b80638da5cb5b116100dc5780638da5cb5b1461054a57806391b7f5ed1461057557806395d89b411461059e5780639bfd8a25146105c9576101ee565b80636f8b44b0146104a457806370a08231146104cd578063715018a61461050a578063819b25ba14610521576101ee565b80632ca4b2091161018557806354214f691161015457806354214f69146103e65780636352211e146104115780636737c9c11461044e5780636c0360eb14610479576101ee565b80632ca4b2091461034f57806340c0109e1461037857806342842e0e146103a157806342966c68146103bd576101ee565b806318160ddd116101c157806318160ddd146102b4578063183aeaf4146102df57806323b872dd1461030a57806326a4e8d214610326576101ee565b806301ffc9a7146101f357806306fdde0314610230578063081812fc1461025b578063095ea7b314610298575b600080fd5b3480156101ff57600080fd5b5061021a6004803603810190610215919061254e565b610784565b6040516102279190612596565b60405180910390f35b34801561023c57600080fd5b50610245610816565b6040516102529190612641565b60405180910390f35b34801561026757600080fd5b50610282600480360381019061027d9190612699565b6108a8565b60405161028f9190612707565b60405180910390f35b6102b260048036038101906102ad919061274e565b610927565b005b3480156102c057600080fd5b506102c9610a6b565b6040516102d6919061279d565b60405180910390f35b3480156102eb57600080fd5b506102f4610a82565b604051610301919061279d565b60405180910390f35b610324600480360381019061031f91906127b8565b610a88565b005b34801561033257600080fd5b5061034d6004803603810190610348919061280b565b610daa565b005b34801561035b57600080fd5b506103766004803603810190610371919061296d565b610e9a565b005b34801561038457600080fd5b5061039f600480360381019061039a9190612699565b610eb5565b005b6103bb60048036038101906103b691906127b8565b610ec7565b005b3480156103c957600080fd5b506103e460048036038101906103df9190612699565b610ee7565b005b3480156103f257600080fd5b506103fb610f69565b6040516104089190612596565b60405180910390f35b34801561041d57600080fd5b5061043860048036038101906104339190612699565b610f7c565b6040516104459190612707565b60405180910390f35b34801561045a57600080fd5b50610463610f8e565b604051610470919061279d565b60405180910390f35b34801561048557600080fd5b5061048e610f94565b60405161049b9190612641565b60405180910390f35b3480156104b057600080fd5b506104cb60048036038101906104c69190612699565b611022565b005b3480156104d957600080fd5b506104f460048036038101906104ef919061280b565b611034565b604051610501919061279d565b60405180910390f35b34801561051657600080fd5b5061051f6110ec565b005b34801561052d57600080fd5b5061054860048036038101906105439190612699565b611100565b005b34801561055657600080fd5b5061055f6111ca565b60405161056c9190612707565b60405180910390f35b34801561058157600080fd5b5061059c60048036038101906105979190612699565b6111f4565b005b3480156105aa57600080fd5b506105b361123e565b6040516105c09190612641565b60405180910390f35b3480156105d557600080fd5b506105f060048036038101906105eb919061296d565b6112d0565b005b3480156105fe57600080fd5b50610607611306565b6040516106149190612707565b60405180910390f35b34801561062957600080fd5b5061063261132c565b60405161063f919061279d565b60405180910390f35b34801561065457600080fd5b5061066f600480360381019061066a9190612699565b611332565b005b34801561067d57600080fd5b50610698600480360381019061069391906129e2565b6115f8565b005b6106b460048036038101906106af9190612ac3565b611703565b005b3480156106c257600080fd5b506106dd60048036038101906106d89190612699565b611776565b6040516106ea9190612641565b60405180910390f35b3480156106ff57600080fd5b50610708611830565b6040516107159190612641565b60405180910390f35b34801561072a57600080fd5b5061074560048036038101906107409190612b46565b6118be565b6040516107529190612596565b60405180910390f35b34801561076757600080fd5b50610782600480360381019061077d919061280b565b611952565b005b60006301ffc9a760e01b827bffffffffffffffffffffffffffffffffffffffffffffffffffffffff191614806107df57506380ac58cd60e01b827bffffffffffffffffffffffffffffffffffffffffffffffffffffffff1916145b8061080f5750635b5e139f60e01b827bffffffffffffffffffffffffffffffffffffffffffffffffffffffff1916145b9050919050565b60606002805461082590612bb5565b80601f016020809104026020016040519081016040528092919081815260200182805461085190612bb5565b801561089e5780601f106108735761010080835404028352916020019161089e565b820191906000526020600020905b81548152906001019060200180831161088157829003601f168201915b5050505050905090565b60006108b3826119d5565b6108e9576040517fcf4700e400000000000000000000000000000000000000000000000000000000815260040160405180910390fd5b6006600083815260200190815260200160002060000160009054906101000a900473ffffffffffffffffffffffffffffffffffffffff169050919050565b600061093282610f7c565b90508073ffffffffffffffffffffffffffffffffffffffff16610953611a34565b73ffffffffffffffffffffffffffffffffffffffff16146109b65761097f8161097a611a34565b6118be565b6109b5576040517fcfb3b94200000000000000000000000000000000000000000000000000000000815260040160405180910390fd5b5b826006600084815260200190815260200160002060000160006101000a81548173ffffffffffffffffffffffffffffffffffffffff021916908373ffffffffffffffffffffffffffffffffffffffff160217905550818373ffffffffffffffffffffffffffffffffffffffff168273ffffffffffffffffffffffffffffffffffffffff167f8c5be1e5ebec7d5bd14f71427d1e84f3dd0314c0f7b2291e5b200ac8c7c3b92560405160405180910390a4505050565b6000610a75611a3c565b6001546000540303905090565b600d5481565b6000610a9382611a41565b90508373ffffffffffffffffffffffffffffffffffffffff168173ffffffffffffffffffffffffffffffffffffffff1614610afa576040517fa114810000000000000000000000000000000000000000000000000000000000815260040160405180910390fd5b600080610b0684611b0d565b91509150610b1c8187610b17611a34565b611b34565b610b6857610b3186610b2c611a34565b6118be565b610b67576040517f59c896be00000000000000000000000000000000000000000000000000000000815260040160405180910390fd5b5b600073ffffffffffffffffffffffffffffffffffffffff168573ffffffffffffffffffffffffffffffffffffffff1603610bce576040517fea553b3400000000000000000000000000000000000000000000000000000000815260040160405180910390fd5b610bdb8686866001611b78565b8015610be657600082555b600560008773ffffffffffffffffffffffffffffffffffffffff1673ffffffffffffffffffffffffffffffffffffffff168152602001908152602001600020600081546001900391905081905550600560008673ffffffffffffffffffffffffffffffffffffffff1673ffffffffffffffffffffffffffffffffffffffff1681526020019081526020016000206000815460010191905081905550610cb485610c90888887611b7e565b7c020000000000000000000000000000000000000000000000000000000017611ba6565b600460008681526020019081526020016000208190555060007c0200000000000000000000000000000000000000000000000000000000841603610d3a5760006001850190506000600460008381526020019081526020016000205403610d38576000548114610d37578360046000838152602001908152602001600020819055505b5b505b838573ffffffffffffffffffffffffffffffffffffffff168773ffffffffffffffffffffffffffffffffffffffff167fddf252ad1be2c89b69c2b068fc378daa952ba7f163c4a11628f55a4df523b3ef60405160405180910390a4610da28686866001611bd1565b505050505050565b610db2611bd7565b6000600a60009054906101000a900473ffffffffffffffffffffffffffffffffffffffff16905081600a60006101000a81548173ffffffffffffffffffffffffffffffffffffffff021916908373ffffffffffffffffffffffffffffffffffffffff160217905550600a60009054906101000a900473ffffffffffffffffffffffffffffffffffffffff1673ffffffffffffffffffffffffffffffffffffffff168173ffffffffffffffffffffffffffffffffffffffff167fec019a3862cbb7e77577ec225660ea55331f2e0a14582b1a2761db65bcd88f0e60405160405180910390a35050565b610ea2611bd7565b80600e9081610eb19190612d92565b5050565b610ebd611bd7565b80600d8190555050565b610ee283838360405180602001604052806000815250611703565b505050565b610ef081610f7c565b73ffffffffffffffffffffffffffffffffffffffff163373ffffffffffffffffffffffffffffffffffffffff1614610f5d576040517f08c379a0000000000000000000000000000000000000000000000000000000008152600401610f5490612eb0565b60405180910390fd5b610f6681611c55565b50565b600f60009054906101000a900460ff1681565b6000610f8782611a41565b9050919050565b600c5481565b600b8054610fa190612bb5565b80601f0160208091040260200160405190810160405280929190818152602001828054610fcd90612bb5565b801561101a5780601f10610fef5761010080835404028352916020019161101a565b820191906000526020600020905b815481529060010190602001808311610ffd57829003601f168201915b505050505081565b61102a611bd7565b80600c8190555050565b60008073ffffffffffffffffffffffffffffffffffffffff168273ffffffffffffffffffffffffffffffffffffffff160361109b576040517f8f4eb60400000000000000000000000000000000000000000000000000000000815260040160405180910390fd5b67ffffffffffffffff600560008473ffffffffffffffffffffffffffffffffffffffff1673ffffffffffffffffffffffffffffffffffffffff16815260200190815260200160002054169050919050565b6110f4611bd7565b6110fe6000611c63565b565b611108611bd7565b600d5481111561114d576040517f08c379a000000000000000000000000000000000000000000000000000000000815260040161114490612f1c565b60405180910390fd5b600c5481611159610a6b565b6111639190612f6b565b11156111a4576040517f08c379a000000000000000000000000000000000000000000000000000000000815260040161119b90612feb565b60405180910390fd5b80600d60008282546111b6919061300b565b925050819055506111c73382611d29565b50565b6000600860009054906101000a900473ffffffffffffffffffffffffffffffffffffffff16905090565b6111fc611bd7565b6000600954905081600981905550600954817ff9317dc3bc6dda0e00e43855c2c30847aeafb8dcea9d2ce86e9ce7a83d549f0160405160405180910390a35050565b60606003805461124d90612bb5565b80601f016020809104026020016040519081016040528092919081815260200182805461127990612bb5565b80156112c65780601f1061129b576101008083540402835291602001916112c6565b820191906000526020600020905b8154815290600101906020018083116112a957829003601f168201915b5050505050905090565b6112d8611bd7565b6001600f60006101000a81548160ff02191690831515021790555080600b90816113029190612d92565b5050565b600a60009054906101000a900473ffffffffffffffffffffffffffffffffffffffff1681565b60095481565b600060095482611342919061303f565b9050600c5482611350610a6b565b61135a9190612f6b565b111561139b576040517f08c379a000000000000000000000000000000000000000000000000000000000815260040161139290612feb565b60405180910390fd5b80600a60009054906101000a900473ffffffffffffffffffffffffffffffffffffffff1673ffffffffffffffffffffffffffffffffffffffff166370a08231336040518263ffffffff1660e01b81526004016113f79190612707565b602060405180830381865afa158015611414573d6000803e3d6000fd5b505050506040513d601f19601f820116820180604052508101906114389190613096565b1015611470576040517f22bbb43c00000000000000000000000000000000000000000000000000000000815260040160405180910390fd5b80600a60009054906101000a900473ffffffffffffffffffffffffffffffffffffffff1673ffffffffffffffffffffffffffffffffffffffff1663dd62ed3e33306040518363ffffffff1660e01b81526004016114ce9291906130c3565b602060405180830381865afa1580156114eb573d6000803e3d6000fd5b505050506040513d601f19601f8201168201806040525081019061150f9190613096565b1015611547576040517f4fd3af0700000000000000000000000000000000000000000000000000000000815260040160405180910390fd5b600a60009054906101000a900473ffffffffffffffffffffffffffffffffffffffff1673ffffffffffffffffffffffffffffffffffffffff166323b872dd3330846040518463ffffffff1660e01b81526004016115a6939291906130ec565b6020604051808303816000875af11580156115c5573d6000803e3d6000fd5b505050506040513d601f19601f820116820180604052508101906115e99190613138565b506115f43383611d47565b5050565b8060076000611605611a34565b73ffffffffffffffffffffffffffffffffffffffff1673ffffffffffffffffffffffffffffffffffffffff16815260200190815260200160002060008473ffffffffffffffffffffffffffffffffffffffff1673ffffffffffffffffffffffffffffffffffffffff16815260200190815260200160002060006101000a81548160ff0219169083151502179055508173ffffffffffffffffffffffffffffffffffffffff166116b2611a34565b73ffffffffffffffffffffffffffffffffffffffff167f17307eab39ab6107e8899845ad3d59bd9653f200f220920489ca2b5937696c31836040516116f79190612596565b60405180910390a35050565b61170e848484610a88565b60008373ffffffffffffffffffffffffffffffffffffffff163b146117705761173984848484611f02565b61176f576040517fd1a57ed600000000000000000000000000000000000000000000000000000000815260040160405180910390fd5b5b50505050565b6060600f60009054906101000a900460ff161561179d5761179682612052565b905061182b565b600e80546117aa90612bb5565b80601f01602080910402602001604051908101604052809291908181526020018280546117d690612bb5565b80156118235780601f106117f857610100808354040283529160200191611823565b820191906000526020600020905b81548152906001019060200180831161180657829003601f168201915b505050505090505b919050565b600e805461183d90612bb5565b80601f016020809104026020016040519081016040528092919081815260200182805461186990612bb5565b80156118b65780601f1061188b576101008083540402835291602001916118b6565b820191906000526020600020905b81548152906001019060200180831161189957829003601f168201915b505050505081565b6000600760008473ffffffffffffffffffffffffffffffffffffffff1673ffffffffffffffffffffffffffffffffffffffff16815260200190815260200160002060008373ffffffffffffffffffffffffffffffffffffffff1673ffffffffffffffffffffffffffffffffffffffff16815260200190815260200160002060009054906101000a900460ff16905092915050565b61195a611bd7565b600073ffffffffffffffffffffffffffffffffffffffff168173ffffffffffffffffffffffffffffffffffffffff16036119c9576040517f08c379a00000000000000000000000000000000000000000000000000000000081526004016119c0906131d7565b60405180910390fd5b6119d281611c63565b50565b6000816119e0611a3c565b111580156119ef575060005482105b8015611a2d575060007c0100000000000000000000000000000000000000000000000000000000600460008581526020019081526020016000205416145b9050919050565b600033905090565b600090565b60008082905080611a50611a3c565b11611ad657600054811015611ad55760006004600083815260200190815260200160002054905060007c0100000000000000000000000000000000000000000000000000000000821603611ad3575b60008103611ac9576004600083600190039350838152602001908152602001600020549050611a9f565b8092505050611b08565b505b5b6040517fdf2d9b4200000000000000000000000000000000000000000000000000000000815260040160405180910390fd5b919050565b60008060006006600085815260200190815260200160002090508092508254915050915091565b600073ffffffffffffffffffffffffffffffffffffffff8316925073ffffffffffffffffffffffffffffffffffffffff821691508382148383141790509392505050565b50505050565b60008060e883901c905060e8611b958686846120f0565b62ffffff16901b9150509392505050565b600073ffffffffffffffffffffffffffffffffffffffff83169250814260a01b178317905092915050565b50505050565b611bdf6120f9565b73ffffffffffffffffffffffffffffffffffffffff16611bfd6111ca565b73ffffffffffffffffffffffffffffffffffffffff1614611c53576040517f08c379a0000000000000000000000000000000000000000000000000000000008152600401611c4a90613243565b60405180910390fd5b565b611c60816000612101565b50565b6000600860009054906101000a900473ffffffffffffffffffffffffffffffffffffffff16905081600860006101000a81548173ffffffffffffffffffffffffffffffffffffffff021916908373ffffffffffffffffffffffffffffffffffffffff1602179055508173ffffffffffffffffffffffffffffffffffffffff168173ffffffffffffffffffffffffffffffffffffffff167f8be0079c531659141344cd1fd0a4f28419497f9722a3daafe3b4186f6b6457e060405160405180910390a35050565b611d43828260405180602001604052806000815250612353565b5050565b60008054905060008203611d87576040517fb562e8dd00000000000000000000000000000000000000000000000000000000815260040160405180910390fd5b611d946000848385611b78565b600160406001901b178202600560008573ffffffffffffffffffffffffffffffffffffffff1673ffffffffffffffffffffffffffffffffffffffff16815260200190815260200160002060008282540192505081905550611e0b83611dfc6000866000611b7e565b611e05856123f0565b17611ba6565b6004600083815260200190815260200160002081905550600080838301905073ffffffffffffffffffffffffffffffffffffffff85169150828260007fddf252ad1be2c89b69c2b068fc378daa952ba7f163c4a11628f55a4df523b3ef600080a4600183015b818114611eac57808360007fddf252ad1be2c89b69c2b068fc378daa952ba7f163c4a11628f55a4df523b3ef600080a4600181019050611e71565b5060008203611ee7576040517f2e07630000000000000000000000000000000000000000000000000000000000815260040160405180910390fd5b806000819055505050611efd6000848385611bd1565b505050565b60008373ffffffffffffffffffffffffffffffffffffffff1663150b7a02611f28611a34565b8786866040518563ffffffff1660e01b8152600401611f4a94939291906132b8565b6020604051808303816000875af1925050508015611f8657506040513d601f19601f82011682018060405250810190611f839190613319565b60015b611fff573d8060008114611fb6576040519150601f19603f3d011682016040523d82523d6000602084013e611fbb565b606091505b506000815103611ff7576040517fd1a57ed600000000000000000000000000000000000000000000000000000000815260040160405180910390fd5b805181602001fd5b63150b7a0260e01b7bffffffffffffffffffffffffffffffffffffffffffffffffffffffff1916817bffffffffffffffffffffffffffffffffffffffffffffffffffffffff191614915050949350505050565b606061205d826119d5565b612093576040517fa14c4b5000000000000000000000000000000000000000000000000000000000815260040160405180910390fd5b600061209d612400565b905060008151036120bd57604051806020016040528060008152506120e8565b806120c784612492565b6040516020016120d8929190613382565b6040516020818303038152906040525b915050919050565b60009392505050565b600033905090565b600061210c83611a41565b9050600081905060008061211f86611b0d565b9150915084156121885761213b8184612136611a34565b611b34565b612187576121508361214b611a34565b6118be565b612186576040517f59c896be00000000000000000000000000000000000000000000000000000000815260040160405180910390fd5b5b5b612196836000886001611b78565b80156121a157600082555b600160806001901b03600560008573ffffffffffffffffffffffffffffffffffffffff1673ffffffffffffffffffffffffffffffffffffffff168152602001908152602001600020600082825401925050819055506122498361220685600088611b7e565b7c02000000000000000000000000000000000000000000000000000000007c01000000000000000000000000000000000000000000000000000000001717611ba6565b600460008881526020019081526020016000208190555060007c02000000000000000000000000000000000000000000000000000000008516036122cf57600060018701905060006004600083815260200190815260200160002054036122cd5760005481146122cc578460046000838152602001908152602001600020819055505b5b505b85600073ffffffffffffffffffffffffffffffffffffffff168473ffffffffffffffffffffffffffffffffffffffff167fddf252ad1be2c89b69c2b068fc378daa952ba7f163c4a11628f55a4df523b3ef60405160405180910390a4612339836000886001611bd1565b600160008154809291906001019190505550505050505050565b61235d8383611d47565b60008373ffffffffffffffffffffffffffffffffffffffff163b146123eb57600080549050600083820390505b61239d6000868380600101945086611f02565b6123d3576040517fd1a57ed600000000000000000000000000000000000000000000000000000000815260040160405180910390fd5b81811061238a5781600054146123e857600080fd5b50505b505050565b60006001821460e11b9050919050565b6060600b805461240f90612bb5565b80601f016020809104026020016040519081016040528092919081815260200182805461243b90612bb5565b80156124885780601f1061245d57610100808354040283529160200191612488565b820191906000526020600020905b81548152906001019060200180831161246b57829003601f168201915b5050505050905090565b606060a060405101806040526020810391506000825281835b6001156124cd57600184039350600a81066030018453600a81049050806124ab575b50828103602084039350808452505050919050565b6000604051905090565b600080fd5b600080fd5b60007fffffffff0000000000000000000000000000000000000000000000000000000082169050919050565b61252b816124f6565b811461253657600080fd5b50565b60008135905061254881612522565b92915050565b600060208284031215612564576125636124ec565b5b600061257284828501612539565b91505092915050565b60008115159050919050565b6125908161257b565b82525050565b60006020820190506125ab6000830184612587565b92915050565b600081519050919050565b600082825260208201905092915050565b60005b838110156125eb5780820151818401526020810190506125d0565b60008484015250505050565b6000601f19601f8301169050919050565b6000612613826125b1565b61261d81856125bc565b935061262d8185602086016125cd565b612636816125f7565b840191505092915050565b6000602082019050818103600083015261265b8184612608565b905092915050565b6000819050919050565b61267681612663565b811461268157600080fd5b50565b6000813590506126938161266d565b92915050565b6000602082840312156126af576126ae6124ec565b5b60006126bd84828501612684565b91505092915050565b600073ffffffffffffffffffffffffffffffffffffffff82169050919050565b60006126f1826126c6565b9050919050565b612701816126e6565b82525050565b600060208201905061271c60008301846126f8565b92915050565b61272b816126e6565b811461273657600080fd5b50565b60008135905061274881612722565b92915050565b60008060408385031215612765576127646124ec565b5b600061277385828601612739565b925050602061278485828601612684565b9150509250929050565b61279781612663565b82525050565b60006020820190506127b2600083018461278e565b92915050565b6000806000606084860312156127d1576127d06124ec565b5b60006127df86828701612739565b93505060206127f086828701612739565b925050604061280186828701612684565b9150509250925092565b600060208284031215612821576128206124ec565b5b600061282f84828501612739565b91505092915050565b600080fd5b600080fd5b7f4e487b7100000000000000000000000000000000000000000000000000000000600052604160045260246000fd5b61287a826125f7565b810181811067ffffffffffffffff8211171561289957612898612842565b5b80604052505050565b60006128ac6124e2565b90506128b88282612871565b919050565b600067ffffffffffffffff8211156128d8576128d7612842565b5b6128e1826125f7565b9050602081019050919050565b82818337600083830152505050565b600061291061290b846128bd565b6128a2565b90508281526020810184848401111561292c5761292b61283d565b5b6129378482856128ee565b509392505050565b600082601f83011261295457612953612838565b5b81356129648482602086016128fd565b91505092915050565b600060208284031215612983576129826124ec565b5b600082013567ffffffffffffffff8111156129a1576129a06124f1565b5b6129ad8482850161293f565b91505092915050565b6129bf8161257b565b81146129ca57600080fd5b50565b6000813590506129dc816129b6565b92915050565b600080604083850312156129f9576129f86124ec565b5b6000612a0785828601612739565b9250506020612a18858286016129cd565b9150509250929050565b600067ffffffffffffffff821115612a3d57612a3c612842565b5b612a46826125f7565b9050602081019050919050565b6000612a66612a6184612a22565b6128a2565b905082815260208101848484011115612a8257612a8161283d565b5b612a8d8482856128ee565b509392505050565b600082601f830112612aaa57612aa9612838565b5b8135612aba848260208601612a53565b91505092915050565b60008060008060808587031215612add57612adc6124ec565b5b6000612aeb87828801612739565b9450506020612afc87828801612739565b9350506040612b0d87828801612684565b925050606085013567ffffffffffffffff811115612b2e57612b2d6124f1565b5b612b3a87828801612a95565b91505092959194509250565b60008060408385031215612b5d57612b5c6124ec565b5b6000612b6b85828601612739565b9250506020612b7c85828601612739565b9150509250929050565b7f4e487b7100000000000000000000000000000000000000000000000000000000600052602260045260246000fd5b60006002820490506001821680612bcd57607f821691505b602082108103612be057612bdf612b86565b5b50919050565b60008190508160005260206000209050919050565b60006020601f8301049050919050565b600082821b905092915050565b600060088302612c487fffffffffffffffffffffffffffffffffffffffffffffffffffffffffffffffff82612c0b565b612c528683612c0b565b95508019841693508086168417925050509392505050565b6000819050919050565b6000612c8f612c8a612c8584612663565b612c6a565b612663565b9050919050565b6000819050919050565b612ca983612c74565b612cbd612cb582612c96565b848454612c18565b825550505050565b600090565b612cd2612cc5565b612cdd818484612ca0565b505050565b5b81811015612d0157612cf6600082612cca565b600181019050612ce3565b5050565b601f821115612d4657612d1781612be6565b612d2084612bfb565b81016020851015612d2f578190505b612d43612d3b85612bfb565b830182612ce2565b50505b505050565b600082821c905092915050565b6000612d6960001984600802612d4b565b1980831691505092915050565b6000612d828383612d58565b9150826002028217905092915050565b612d9b826125b1565b67ffffffffffffffff811115612db457612db3612842565b5b612dbe8254612bb5565b612dc9828285612d05565b600060209050601f831160018114612dfc5760008415612dea578287015190505b612df48582612d76565b865550612e5c565b601f198416612e0a86612be6565b60005b82811015612e3257848901518255600182019150602085019450602081019050612e0d565b86831015612e4f5784890151612e4b601f891682612d58565b8355505b6001600288020188555050505b505050505050565b7f6e6f744f776e6572000000000000000000000000000000000000000000000000600082015250565b6000612e9a6008836125bc565b9150612ea582612e64565b602082019050919050565b60006020820190508181036000830152612ec981612e8d565b9050919050565b7f746865207175616e746974792065786365656473207265736572766500000000600082015250565b6000612f06601c836125bc565b9150612f1182612ed0565b602082019050919050565b60006020820190508181036000830152612f3581612ef9565b9050919050565b7f4e487b7100000000000000000000000000000000000000000000000000000000600052601160045260246000fd5b6000612f7682612663565b9150612f8183612663565b9250828201905080821115612f9957612f98612f3c565b5b92915050565b7f4e6f7420656e6f75676820746f6b656e73206c65667400000000000000000000600082015250565b6000612fd56016836125bc565b9150612fe082612f9f565b602082019050919050565b6000602082019050818103600083015261300481612fc8565b9050919050565b600061301682612663565b915061302183612663565b925082820390508181111561303957613038612f3c565b5b92915050565b600061304a82612663565b915061305583612663565b925082820261306381612663565b9150828204841483151761307a57613079612f3c565b5b5092915050565b6000815190506130908161266d565b92915050565b6000602082840312156130ac576130ab6124ec565b5b60006130ba84828501613081565b91505092915050565b60006040820190506130d860008301856126f8565b6130e560208301846126f8565b9392505050565b600060608201905061310160008301866126f8565b61310e60208301856126f8565b61311b604083018461278e565b949350505050565b600081519050613132816129b6565b92915050565b60006020828403121561314e5761314d6124ec565b5b600061315c84828501613123565b91505092915050565b7f4f776e61626c653a206e6577206f776e657220697320746865207a65726f206160008201527f6464726573730000000000000000000000000000000000000000000000000000602082015250565b60006131c16026836125bc565b91506131cc82613165565b604082019050919050565b600060208201905081810360008301526131f0816131b4565b9050919050565b7f4f776e61626c653a2063616c6c6572206973206e6f7420746865206f776e6572600082015250565b600061322d6020836125bc565b9150613238826131f7565b602082019050919050565b6000602082019050818103600083015261325c81613220565b9050919050565b600081519050919050565b600082825260208201905092915050565b600061328a82613263565b613294818561326e565b93506132a48185602086016125cd565b6132ad816125f7565b840191505092915050565b60006080820190506132cd60008301876126f8565b6132da60208301866126f8565b6132e7604083018561278e565b81810360608301526132f9818461327f565b905095945050505050565b60008151905061331381612522565b92915050565b60006020828403121561332f5761332e6124ec565b5b600061333d84828501613304565b91505092915050565b600081905092915050565b600061335c826125b1565b6133668185613346565b93506133768185602086016125cd565b80840191505092915050565b600061338e8285613351565b915061339a8284613351565b9150819050939250505056fea2646970667358221220d6c7cf85bb5102987260bbc77438144be3112056c75d54950a60a1141db0752364736f6c6343000811003368747470733a2f2f7777772e6a736f6e6b65657065722e636f6d2f622f53303047",
  "linkReferences": {},
  "deployedLinkReferences": {}
}